:100000000C94E0000C9408010C9408010C94080175
:100010000C9408010C9408010C9408010C9408013C
:100020000C9408010C9408010C9408010C9408012C
:100030000C9408010C9408010C9408010C9408011C
:100040000C94AB050C9408010C94D5080C9407098A
:100050000C9408010C9408010C9408010C940801FC
:100060000C9408010C940801000000080002010033
:100070000003040700000000000000000102040863
:100080001020408001020408102001020408102002
:10009000040404040404040402020202020203032E
:1000A00003030303000000002300260029000000D2
:1000B0000000250028002B0000000000240027007D
:1000C0002A0000407A10F35A00A0724E180900105E
:1000D000A5D4E80000E87648170000E40B540200BD
:1000E00000CA9A3B000000E1F505000080969800E8
:1000F000000040420F000000A08601000000102711
:1001000000000000E80300000000640000000000A0
:100110000A00000000000100000000002C76D888D2
:10012000DC674F0823DFC1DFAE59E1B1B796E5E3E5
:10013000E453C63AE651997696E8E6C28426EB89FE
:100140008C9B62ED407C6FFCEFBC9C9F40F2BAA59B
:100150006FA5F490055A2AF75C936B6CF9676DC133
:100160001BFCE0E40D47FEF520E6B500D0ED902E37
:100170000300943577050080841E080000204E0A95
:10018000000000C80C333333330F986E12831141D3
:10019000EF8D2114893BE65516CFFEE6DB18D1849E
:1001A0004B381BF77C1D901DA4BBE42420328472C5
:1001B0005E228100C9F124ECA1E53D272203370925
:1001C00011241FBECFEFD8E0DEBFCDBF11E0A0E00D
:1001D000B1E0EEE5F3E202C005900D92A636B1075C
:1001E000D9F722E0A6E6B1E001C01D92A533B2071F
:1001F000E1F711E0C0ECD1E004C02297FE010E94BB
:10020000AE0CCC3BD107C9F70E94580B0C94AD1132
:100210000C940000CF92DF92EF92FF920F931F9306
:10022000E82FF92F05C0015011092109310961F1A9
:10023000908196239417B9F305C001501109210943
:10024000310911F1908196239413F7CFC12CD12C51
:10025000E12CF12C0AC08FEFC81AD80AE80AF80A74
:100260000C151D052E053F0579F080818623841726
:1002700091F36C2D7D2D8E2D9F2D1F910F91FF9051
:10028000EF90DF90CF90089560E070E080E090E024
:100290001F910F91FF90EF90DF90CF90089526E08F
:1002A00040E855E260E070E084E991E00E94730864
:1002B00060E080910E010E94CC0661E080910C010B
:1002C0000C94CC06CF93DF93CCE0D1E060E0888142
:1002D0000E94050782E090E00E94400661E088816C
:1002E0000E9405078AE090E00E94400660E0888155
:1002F0000E94050720E432E44FE050E061E0809185
:100300000E010E9464070E949B0B26E933E44BE038
:100310005DE30E94270C20E030E040E05FE30E94B4
:10032000270C0E94680BDF91CF91089580910A01FC
:100330000E948606BC01882777FD8095982F0E9431
:100340009B0B0895CF93DF93CDB7DEB7A4970FB67D
:10035000F894DEBF0FBECDBF0E949601AB01BC0179
:1003600022E0CE0101960E949E0A409166015091C2
:100370006701609168017091690122E0CE010796E2
:100380000E94CE0A40916A0150916B0160916C010C
:1003900070916D0122E0CE010D960E94CE0A0E945E
:1003A0006201AB01BC012AE0CE0149960E94710AAC
:1003B000BE01675E7F4FCE0143960E94500A61E105
:1003C00071E0CE0143960E943D0BBE01635F7F4FFB
:1003D0000E942A0B61E171E00E943D0BBE01695F42
:1003E0007F4F0E942A0B61E171E00E943D0BBE012C
:1003F0006F5F7F4F0E942A0BBC01CE014F960E9477
:10040000500ACE0143960E94B509CE0149960E943A
:10041000B509CE010D960E94B509CE0107960E943E
:10042000B509CE0101960E94B509BE01615E7F4FFC
:1004300084E991E00E94A209CE014F960E94B5097D
:10044000A4960FB6F894DEBF0FBECDBFDF91CF915B
:1004500008958F929F92AF92BF92CF92DF92EF92C8
:10046000FF92CF93DF93CDB7DEB72C970FB6F894FA
:10047000DEBF0FBECDBF0E9462014B015C010E9436
:1004800096016B017C0120E044E060E183E791E0AC
:100490000E94EB0340E060E083E791E00E94D1031B
:1004A0002AE0B501A401CE0107960E94710A63E11A
:1004B00071E0CE0101960E94230ABE01695F7F4F61
:1004C000CE0101960E942A0B6FE171E00E943D0B64
:1004D000BC0183E791E00E94A209CE0101960E942F
:1004E000B509CE0107960E94B50941E060E083E7B7
:1004F00091E00E94D10368E086E691E00E945305F6
:1005000040916A0150916B0160916C0170916D0195
:1005100022E0CE0107960E94CE0A62E271E0CE018F
:1005200001960E94230ABE01695F7F4FCE010196AA
:100530000E942A0B6EE271E00E943D0BBC0183E732
:1005400091E00E94A209CE0101960E94B509CE0158
:1005500007960E94B50942E060E083E791E00E94BF
:10056000D1034091660150916701609168017091DB
:10057000690122E0CE0107960E94CE0A60E371E095
:10058000CE0101960E94230ABE01695F7F4FCE0112
:1005900001960E942A0B6CE371E00E943D0BBC01A6
:1005A00083E791E00E94A209CE0101960E94B5095D
:1005B000CE0107960E94B50943E060E083E791E031
:1005C0000E94D10322E0B701A601CE0107960E9446
:1005D0009E0A6EE371E0CE0101960E94230ABE01DD
:1005E000695F7F4FCE0101960E942A0B6AE471E099
:1005F0000E943D0BBC0183E791E00E94A209CE015D
:1006000001960E94B509CE0107960E94B5092C9665
:100610000FB6F894DEBF0FBECDBFDF91CF91FF9034
:10062000EF90DF90CF90BF90AF909F908F90089504
:100630000E9429020E94A20160ED77E080E090E034
:100640000C941806CF92EF920F9382E0C82E93E09D
:10065000E92E04E025E04BE06CE083E791E00E94A6
:1006600089040F91EF90CF900895CF93DF93EC0121
:1006700060E08E810E94050781E090E00E944006C4
:1006800061E08E810E94050781E090E00E944006B3
:1006900060E08E810E94050784E690E0DF91CF91B3
:1006A0000C944006EF92FF920F931F93CF93DF932A
:1006B0008C01C0E0D0E0E62EF12CB7010C2E02C078
:1006C000759567950A94E2F76170F801EC0FFD1FCC
:1006D00087810E9405072196C430D10571F7C801B2
:1006E000DF91CF911F910F91FF90EF900C94350304
:1006F000EF92FF920F931F93CF93DF938C01C0E093
:10070000D0E0E62EF12CB7010C2E02C0759567954E
:100710000A94E2F76170F801EC0FFD1F87810E94D7
:1007200005072196C830D10571F7C801DF91CF9137
:100730001F910F91FF90EF900C9435031F93CF936F
:10074000DF93EC01162F642F8C810E9405078D81A9
:100750008F3F19F060E00E9405078F85612F84FFAD
:1007600006C0CE01DF91CF911F910C94780370E009
:1007700084E0759567958A95E1F7CE010E94520352
:10078000612FCE01DF91CF911F910C94520340E075
:100790000C949E0361E00E94C70380ED97E00C94E7
:1007A0004006443008F043E0FC012389421710F072
:1007B0004FEF420FFC01E40FF11D2489260F206842
:1007C000622F0C94C703FC016089262F2460208BC4
:1007D0006C600C94C7030F931F93CF93DF93EC01CE
:1007E000423018F08F8588608F874B8B1C8A80E49D
:1007F0008D8B6E8B70E0605C7F4F6F8B222329F0B6
:10080000413019F48F8584608F8761E08C810E946C
:10081000CC068D818F3F19F061E00E94CC0661E02B
:100820008E810E94CC0600E010E08F8584FF03C01B
:1008300088E090E002C084E090E00817190754F4C3
:10084000FE01E00FF11F61E087810E94CC060F5F7F
:100850001F4FEBCF80E593EC0E94400660E08C8157
:100860000E94050760E08E810E9405078D818F3F01
:1008700019F060E00E9405076F8564FD1DC063E00C
:10088000CE010E94520384E991E10E94400663E098
:10089000CE010E94520384E991E10E94400663E088
:1008A000CE010E94520386E990E00E94400662E079
:1008B000CE010E94520316C06062CE010E94C7039F
:1008C00084E991E10E9440066F856062CE010E943A
:1008D000C70386E990E00E9440066F856062CE0102
:1008E0000E94C7036F856062CE010E94C70384E047
:1008F000888BCE010E94E303CE010E94CA0382E0EE
:10090000898B66E0CE01DF91CF911F910F910C94FE
:10091000C703CF92EF920F93FC011382128282E5FC
:1009200091E09183808364838FEF8583468327835F
:100930000087E186C286138614861586168617867A
:1009400020E041E060E1CF010F91EF90CF900C9457
:10095000EB0341E00E949E0381E090E008955F92E6
:100960006F927F928F929F92AF92BF92CF92DF92BF
:10097000EF92FF920F931F93CF93DF93EC01762EAC
:10098000188619861A861B861C8661E0872D0E94B0
:10099000CC0660E0872D0E94050764E170E080E0EE
:1009A00090E00E94180661E0872D0E94050788E20A
:1009B00090E00E94400660E0872D0E94CC0601E195
:1009C00017E2872D0E943B07892B31F40150110952
:1009D000C1F78EEF9FEF57C001E117E2872D0E940C
:1009E0003B07019721F401501109C1F7F2CF08E24A
:1009F00010E0512C37E0632EAA24A394B12C21E1FE
:100A0000E22E27E2F22E872D0E943B07892B29F444
:100A100081E0E81AF108B9F7DCCF0E94F5056B0117
:100A20007C0191E1892E97E2992E872D0E943B0748
:100A3000019729F481E0881A9108B9F7CACF0E947A
:100A4000F5056C197D098E099F09693271058105CB
:100A5000910560F0FE01E50DF11D2085C501062C14
:100A600001C0880F0A94EAF7282B2087611004C080
:100A7000539487E0682E01C06A940150110909F06F
:100A8000BECF80E090E0DF91CF911F910F91FF905A
:100A9000EF90DF90CF90BF90AF909F908F907F901E
:100AA0006F905F9008950F931F93CF93DF93EC01A6
:100AB0000E94AF04009709F049C0698588850E94AB
:100AC000B009BC0180E090E00E94990B2DEC3CEC59
:100AD0004CEC5DE30E94270C688379838A839B83B7
:100AE0008A8587FF05C08F778A870FEF1FEF02C0C7
:100AF00001E010E06B858A850E94B0099C01029F8D
:100B0000C001039F900D129F900D1124BC0180E045
:100B100090E00E94990B2DEC3CEC4CEC5DE30E94C4
:100B2000270C6C837D838E839F8329858885280F7E
:100B30008A85280F8B85280F81E090E03C85321351
:100B400002C080E090E0919581959109DF91CF916D
:100B50001F910F9108951F920F920FB60F921124BB
:100B60002F933F938F939F93AF93BF9380918C016B
:100B700090918D01A0918E01B0918F0130918B01E8
:100B800023E0230F2D3720F40196A11DB11D05C0D0
:100B900026E8230F0296A11DB11D20938B0180939F
:100BA0008C0190938D01A0938E01B0938F01809161
:100BB000900190919101A0919201B09193010196C1
:100BC000A11DB11D8093900190939101A09392017A
:100BD000B0939301BF91AF919F918F913F912F91CE
:100BE0000F900FBE0F901F9018953FB7F89480910B
:100BF000900190919101A0919201B091930126B53D
:100C0000A89B05C02F3F19F00196A11DB11D3FBF44
:100C10006627782F892F9A2F620F711D811D911DD4
:100C200042E0660F771F881F991F4A95D1F70895F4
:100C3000CF92DF92EF92FF92CF93DF936B017C0113
:100C40000E94F505EB01C114D104E104F10489F01F
:100C50000E94670B0E94F5056C1B7D0B683E73407C
:100C600090F381E0C81AD108E108F108C851DC4FBF
:100C7000EACFDF91CF91FF90EF90DF90CF90089572
:100C80008230910538F0880F991F880F991F0597BA
:100C90000197F1F70895789484B5826084BD84B596
:100CA000816084BD85B5826085BD85B5816085BD67
:100CB000EEE6F0E0808181608083E1E8F0E0108280
:100CC000808182608083808181608083E0E8F0E0C1
:100CD000808181608083E1EBF0E0808184608083AB
:100CE000E0EBF0E0808181608083EAE7F0E08081E2
:100CF0008460808380818260808380818160808342
:100D00008081806880831092C10008958E3008F041
:100D10008E5087702091100190E4299F900111243A
:100D2000822B80937C0080917A00806480937A008B
:100D300080917A0086FDFCCF809178002091790027
:100D400090E0922B0895833081F028F4813099F05F
:100D50008230A1F008958730A9F08830B9F084304E
:100D6000D1F4809180008F7D03C0809180008F77C7
:100D700080938000089584B58F7702C084B58F7DFD
:100D800084BD08958091B0008F7703C08091B0003A
:100D90008F7D8093B0000895CF93DF9390E0FC01A6
:100DA000E458FF4F2491FC01E057FF4F84918823C2
:100DB00049F190E0880F991FFC01E854FF4FA5917D
:100DC000B49182559F4FFC01C591D4919FB7611199
:100DD00008C0F8948C91209582238C93888182237B
:100DE0000AC0623051F4F8948C91322F30958323ED
:100DF0008C938881822B888304C0F8948C91822BF9
:100E00008C939FBFDF91CF9108950F931F93CF9342
:100E1000DF931F92CDB7DEB7282F30E0F901E859F4
:100E2000FF4F8491F901E458FF4F1491F901E05705
:100E3000FF4F04910023C9F0882321F069830E94A9
:100E4000A3066981E02FF0E0EE0FFF1FE255FF4F90
:100E5000A591B4919FB7F8948C91611103C010953E
:100E6000812301C0812B8C939FBF0F90DF91CF9185
:100E70001F910F910895CF93DF93282F30E0F90150
:100E8000E859FF4F8491F901E458FF4FD491F901DB
:100E9000E057FF4FC491CC2391F081110E94A3062B
:100EA000EC2FF0E0EE0FFF1FEC55FF4FA591B49132
:100EB0002C912D2381E090E021F480E002C080E0BD
:100EC00090E0DF91CF9108950F931F93762F90E0DC
:100ED000FC01E458FF4F6491FC01E057FF4FE4919F
:100EE0007111762FF0E0EE0FFF1FEC55FF4F85914B
:100EF000949189019A013F70472F0E940A01611560
:100F000071058105910531F06F5F7F4F8F4F9F4FC6
:100F10009F7003C060E070E0CB011F910F910895B6
:100F2000FC01818D228D90E0805C9F4F821B910996
:100F30008F7399270895FC01918D828D981731F058
:100F4000828DE80FF11D858D90E008958FEF9FEF62
:100F50000895FC01918D828D981761F0828DDF01DB
:100F6000A80FB11D5D968C91928D9F5F9F73928F9C
:100F700090E008958FEF9FEF08958DE299E0892B1F
:100F800049F080E090E0892B29F00E942D09811121
:100F90000C9400000895FC01848DDF01A80FB11DA1
:100FA000A35ABF4F2C91848D90E001968F7399279F
:100FB000848FA689B7892C93A089B1898C9180648C
:100FC0008C93938D848D981306C00288F389E02D4D
:100FD00080818F7D80830895CF93DF93EC01888D8E
:100FE0008823C9F0EA89FB89808185FD05C0A8892D
:100FF000B9898C9186FD0FC00FB607FCF5CF8081B3
:1010000085FFF2CFA889B9898C9185FFEDCFCE01FC
:101010000E94CB07E7CFDF91CF910895CF92DF9267
:10102000FF920F931F93CF93DF931F92CDB7DEB73D
:101030006C0181E0D60158968C9358975B969C91F1
:101040005B975C968C915C97981307C05096ED91D6
:10105000FC915197808185FD2EC0F601038D10E033
:101060000F5F1F4F0F731127F02EF601848DF812BA
:1010700011C00FB607FCF9CFD6015096ED91FC9147
:101080005197808185FFF1CFC60169830E94CB070C
:101090006981EBCF838DE80FF11DE35AFF4F608329
:1010A000D6015B960C935B975296ED91FC9153970A
:1010B000808180620CC0D6015696ED91FC915797C5
:1010C00060835096ED91FC9151978081806480837C
:1010D00081E090E00F90DF91CF911F910F91FF90F1
:1010E000DF90CF900895BF92CF92DF92EF92FF9260
:1010F000CF93DF93EC016A017B01B22EE889F98975
:1011000082E08083411581EE580761057105A1F0E9
:1011100060E079E08DE390E0A70196010E948A0CDF
:101120002150310941095109569547953795279521
:10113000211580E1380798F0E889F989108260E884
:1011400074E88EE190E0A70196010E948A0C21507C
:101150003109410951095695479537952795EC85F1
:10116000FD853083EE85FF852083188EEC89FD890F
:10117000B082EA89FB89808180618083EA89FB896A
:10118000808188608083EA89FB8980818068808390
:10119000EA89FB8980818F7D8083DF91CF91FF90E9
:1011A000EF90DF90CF90BF9008951F920F920FB6EF
:1011B0000F9211242F938F939F93EF93FF93E091BE
:1011C000A401F091A5018081E091AA01F091AB0109
:1011D00082FD12C090818091AD018F5F8F7320914D
:1011E000AE01821751F0E091AD01F0E0EC56FE4FF8
:1011F000958F8093AD0101C08081FF91EF919F9108
:101200008F912F910F900FBE0F901F9018951F92E6
:101210000F920FB60F9211242F933F934F935F932A
:101220006F937F938F939F93AF93BF93EF93FF93AE
:1012300084E991E00E94CB07FF91EF91BF91AF91BC
:101240009F918F917F916F915F914F913F912F91DE
:101250000F900FBE0F901F90189584E991E00E94A7
:10126000900721E0892B09F420E0822F0895109245
:1012700097011092960188EE93E0A0E0B0E0809391
:10128000980190939901A0939A01B0939B018AE5EC
:1012900091E0909395018093940185EC90E0909378
:1012A000A1018093A00184EC90E09093A30180932E
:1012B000A20180EC90E09093A5018093A40181ECC1
:1012C00090E09093A7018093A60182EC90E0909328
:1012D000A9018093A80186EC90E09093AB018093E4
:1012E000AA011092AD011092AE011092AF011092BE
:1012F000B0010895CF92DF92EF92FF920F931F9368
:10130000CF93DF937C016A01EB0100E010E00C1544
:101310001D0571F06991D701ED91FC910190F0816B
:10132000E02DC7010995892B19F00F5F1F4FEFCFF3
:10133000C801DF91CF911F910F91FF90EF90DF9047
:10134000CF900895DC01ED91FC91DB0114964D9155
:101350005C9115976D917C910280F381E02D099449
:1013600070E09B01382BC9010895FC0180819181B7
:101370000C946B0DCF93DF93EC01888199810097DA
:1013800011F00E946B0D198218821D821C821B8233
:101390001A82DF91CF9108950F931F93CF93DF931C
:1013A000EC018B016F5F7F4F888199810E94FA0D5C
:1013B000009731F0998388831B830A8381E001C001
:1013C00080E0DF91CF911F910F910895CF93DF932C
:1013D000EC0188819981892B29F08A819B8186176C
:1013E000970760F4CE010E94CC09882341F08C81DC
:1013F0009D81892B19F4E881F981108281E0DF91C8
:10140000CF910895EF92FF920F931F93CF93DF93A5
:10141000EC017B018A01BA010E94E609811104C036
:10142000CE010E94BA0907C01D830C83B7018881D1
:1014300099810E94CD0ECE01DF91CF911F910F9126
:10144000FF90EF900895FC011182108213821282A6
:10145000158214826115710559F0FB01019000207D
:10146000E9F7AF0141505109461B570B0C94020A92
:101470000895CF93DF93EC01FB018617970761F086
:10148000608171816115710529F0448155810E9447
:10149000020A02C00E94BA09CE01DF91CF910895DD
:1014A000FC011182108213821282158214820C9424
:1014B000390ACF93DF93EC016115710561F0FB01EF
:1014C00001900020E9F7AF0141505109461B570B2D
:1014D0000E94020A02C00E94BA09CE01DF91CF9198
:1014E00008950F931F93CF93DF93CDB7DEB7A297E5
:1014F0000FB6F894DEBF0FBECDBF8C01CB01BA0191
:10150000F80111821082138212821582148230E057
:10151000AE014F5F5F4F0E94D40EBE016F5F7F4FE1
:10152000C8010E94590AA2960FB6F894DEBF0FBEFA
:10153000CDBFDF91CF911F910F910895EF92FF9250
:101540000F931F93CF93DF93CDB7DEB7A1970FB65D
:10155000F894DEBF0FBECDBF7C01CB01BA01F7010D
:1015600011821082138212821582148242E0420F8D
:101570008E010F5F1F4F0E94B20CBC01C7010E9479
:10158000590AA1960FB6F894DEBF0FBECDBFDF910A
:10159000CF911F910F91FF90EF900895EF92FF92DE
:1015A0000F931F93CF93DF93CDB7DEB7A1970FB6FD
:1015B000F894DEBF0FBECDBF7C01CB01BA01F701AD
:1015C00011821082138212821582148242E0420F2D
:1015D0008E010F5F1F4F0E94B20CBC01C7010E9419
:1015E000590AA1960FB6F894DEBF0FBECDBFDF91AA
:1015F000CF911F910F91FF90EF900895EF92FF927E
:101600000F931F93CF93DF93EC017B010C811D811E
:101610006115710511F480E016C04115510591F076
:10162000040F151FB8010E94E6098823A1F3288141
:1016300039818C819D81B701820F931F0E94CD0E4D
:101640001D830C8381E0DF91CF911F910F91FF905B
:10165000EF900895CF93DF93EC01FB014481558116
:10166000608171810E94FE0A811103C0CE010E9437
:10167000BA09CE01DF91CF910895CF93DF93EC01AA
:101680006115710569F0FB0101900020E9F7AF01D8
:1016900041505109461B570B0E94FE0A811103C09D
:1016A000CE010E94BA09CE01DF91CF91089508952D
:1016B0000E944B060E94570B0E944F01CDEBD7E0D2
:1016C0000E9418032097E1F30E94BD07F9CF089507
:1016D00004D06894B111B5C0089598D088F09F5790
:1016E00090F0B92F9927B751A0F0D1F0660F771F6E
:1016F000881F991F1AF0BA95C9F712C0B13081F04E
:101700009FD0B1E008959CC0672F782F8827B85FDD
:1017100039F0B93FCCF3869577956795B395D9F7AE
:101720003EF490958095709561957F4F8F4F9F4FB8
:101730000895E89409C097FB3EF4909580957095C4
:1017400061957F4F8F4F9F4F9923A9F0F92F96E90D
:10175000BB279395F695879577956795B795F11182
:10176000F8CFFAF4BB0F11F460FF1BC06F5F7F4F1F
:101770008F4F9F4F16C0882311F096E911C0772331
:1017800021F09EE8872F762F05C0662371F096E83A
:10179000862F70E060E02AF09A95660F771F881F09
:1017A000DAF7880F9695879597F9089597F99F67C7
:1017B00080E870E060E008959FEF80EC08950024D9
:1017C0000A941616170618060906089500240A94A6
:1017D00012161306140605060895092E0394000C2C
:1017E00011F4882352F0BB0F40F4BF2B11F460FFBB
:1017F00004C06F5F7F4F8F4F9F4F089557FD9058E4
:10180000440F551F59F05F3F71F04795880F97FBC4
:10181000991F61F09F3F79F087950895121613067E
:101820001406551FF2CF4695F1DF08C016161706AD
:101830001806991FF1CF86957105610508940895E2
:10184000E894BB2766277727CB0197F908950BD03B
:10185000C4CFB5DF28F0BADF18F0952309F0A6CF82
:10186000ABCF1124EECFCADFA0F3959FD1F3950F34
:1018700050E0551F629FF001729FBB27F00DB11D14
:10188000639FAA27F00DB11DAA1F649F6627B00DA4
:10189000A11D661F829F2227B00DA11D621F739F8D
:1018A000B00DA11D621F839FA00D611D221F749F9B
:1018B0003327A00D611D231F849F600D211D822FE2
:1018C000762F6A2F11249F5750408AF0E1F0882329
:1018D0004AF0EE0FFF1FBB1F661F771F881F915036
:1018E0005040A9F79E3F510570F060CFAACF5F3FEF
:1018F000ECF3983EDCF3869577956795B795F79569
:10190000E7959F5FC1F7FE2B880F911D96958795F0
:1019100097F90895A1E21A2EAA1BBB1BFD010DC069
:10192000AA1FBB1FEE1FFF1FA217B307E407F5078F
:1019300020F0A21BB30BE40BF50B661F771F881F6B
:10194000991F1A9469F760957095809590959B0101
:10195000AC01BD01CF010895EE0FFF1F0590F4917A
:10196000E02D0994EF920F931F93CF93DF93E8013B
:1019700047FF02C034E101C034E0E42FFF27E7FD58
:10198000F095F7FF03C0F195E195F109E32E022FE1
:101990002E2FAE010E94100FCE01DF91CF911F912B
:1019A0000F91EF900895CF93DF938230910510F45B
:1019B00082E090E0E0913302F091340220E030E0E8
:1019C000A0E0B0E0309739F14081518148175907C4
:1019D000B8F04817590771F482819381109729F064
:1019E00013969C938E9312972CC0909334028093FD
:1019F000330227C02115310531F04217530718F083
:101A0000A901DB0101C0EF019A01BD01DF010280E4
:101A1000F381E02DD7CF21153105F9F0281B390BC3
:101A20002430310580F48A819B816115710521F094
:101A3000FB019383828304C090933402809333022A
:101A4000FE01329644C0FE01E20FF31F8193919391
:101A500022503109398328833AC0209131023091D4
:101A60003202232B41F42091020130910301309383
:101A700032022093310220910001309101012115A1
:101A8000310541F42DB73EB7409104015091050155
:101A9000241B350BE0913102F0913202E217F3077B
:101AA000A0F42E1B3F0B2817390778F0AC014E5FCE
:101AB0005F4F2417350748F04E0F5F1F50933202D7
:101AC000409331028193919302C0E0E0F0E0CF01B6
:101AD000DF91CF910895CF93DF93009709F487C0EA
:101AE000FC01329713821282C0913302D0913402EA
:101AF000209781F420813181280F391F8091310294
:101B0000909132028217930779F5F0933202E093B5
:101B100031026DC0DE0120E030E0AE17BF0750F4A7
:101B200012964D915C9113979D014115510509F154
:101B3000DA01F3CFB383A28340815181840F951FD3
:101B40008A179B0771F48D919C911197840F951FB3
:101B500002969183808312968D919C911397938323
:101B600082832115310529F4F0933402E093330286
:101B70003EC0D9011396FC93EE9312974D915D915F
:101B8000A40FB51FEA17FB0779F480819181840FB8
:101B9000951F0296D90111969C938E938281938111
:101BA00013969C938E931297E0E0F0E08A819B81DC
:101BB000009719F0FE01EC01F9CFCE0102962881C1
:101BC0003981820F931F2091310230913202281700
:101BD000390769F4309729F41092340210923302D5
:101BE00002C013821282D0933202C0933102DF917D
:101BF000CF910895A0E0B0E0E0E0FEE00C947A110F
:101C0000EC01CB01209719F40E94D30CB8C0FE015F
:101C1000E60FF71F9E0122503109E217F30708F47F
:101C2000ACC0D9010D911C91119706171707B8F098
:101C30000530110508F49FC0A8014450510946170A
:101C4000570708F498C002501109061B170B01939F
:101C500011936D937C93CF010E946B0D8CC05B013F
:101C6000A01AB10A4E01800E911EA0913302B091CC
:101C70003402612C712C60E070E0109709F449C0C7
:101C8000A815B905C9F5ED90FC901197670142E0E0
:101C9000C40ED11CCA14DB0478F147018A189B08D2
:101CA000640142E0C40ED11C1296BC9012971396A8
:101CB000AC91B5E0CB16D10440F0B282A3839182FF
:101CC0008082D9018D939C9309C00E5F1F4F0E0D2A
:101CD0001F1DF90111830083EB2DFA2F611571058A
:101CE00031F0DB011396FC93EE93129744C0F0930E
:101CF0003402E09333023FC06D917C9111976616D8
:101D0000770608F43B01BD0112960D90BC91A02D01
:101D1000B4CF609131027091320268157905E9F40F
:101D200068167906D0F440910001509101014115E7
:101D3000510541F44DB75EB7609104017091050102
:101D4000461B570BE417F507C0F4F0933202E093FB
:101D50003102F901918380830EC00E94D30C7C0173
:101D6000009759F0A801BE010E94C40ECE010E9446
:101D70006B0DC70104C0CE0102C080E090E0CDB77A
:101D8000DEB7EEE00C949611FB01DC0102C001907D
:101D90000D9241505040D8F70895FB01DC010190AD
:101DA0000D920020E1F708952532310520F422300C
:101DB00010F00C94DF0EFA011082CA010895BB27BF
:101DC0002A3051F4992342F4BDE2909580957095A4
:101DD00061957F4F8F4F9F4F0C94EF0EBB27FA01F9
:101DE000A62F6217710581059105330B30FB66F054
:101DF000AA27660F771F881F991FAA1FA21710F026
:101E0000A21B63953850A9F7A05DAA3308F0A95D1D
:101E1000A19336F7B111B1931082CA010C946611E7
:101E20006F927F929F92AF92BF92CF92DF92EF928A
:101E3000FF920F931F93CF93DF93CDB7DEB7299710
:101E40000FB6F894DEBF0FBECDBF6A01B22E102FC1
:101E50000C3320F4FF24F394F00E02C04CE3F42E74
:101E60000F2D27E0AE014F5F5F4F0E948E107981EA
:101E7000272F2970213031F0E1FC06C0E0FC06C0BC
:101E800060E005C06DE203C06BE201C060E2AE2D10
:101E9000A07173FF36C0662311F084E001C083E0B7
:101EA0008B1510F4B81A01C0B12CA1110BC0F601AA
:101EB0008B2D90E2882319F091938150FBCFCB0CAE
:101EC000D11CB12C662331F0F601608396012F5F9F
:101ED0003F4F6901C6010396E2FE05C02EE4F601FC
:101EE000208331E404C02EE6F601208331E63183FD
:101EF0002283FC012B2D30E22223F1F1319321507A
:101F0000FBCF72FF40C0662311F084E001C083E084
:101F10008B1510F4B81A01C0B12CA1110BC0F60139
:101F20008B2D90E2882319F091938150FBCFCB0C3D
:101F3000D11CB12C662331F0F601608396012F5F2E
:101F40003F4F6901C6010396E2FE07C029E4F6018E
:101F500020832EE4218326E406C029E6F6012083AF
:101F60002EE6218326E62283FC012B2D30E222235C
:101F700019F031932150FBCFFC01EB0DF11D1082C4
:101F80008EEF9FEFB7C0B1E0611101C0B0E04B2F01
:101F900050E01816190624F49C012F5F3F4F02C031
:101FA00021E030E0240F351F112329F0412F50E0AC
:101FB0004F5F5F4F02C040E050E0420F531F2B2D98
:101FC00030E04217530714F4B41A01C0B12C2E2D7F
:101FD000287159F4F6012B2D30E2222319F03193A8
:101FE0002150FBCFCB0CD11CB12CBB2331F0F6011F
:101FF000608396012F5F3F4F6901A1110BC0F6016D
:102000002B2D30E3222319F031932150FBCFCB0C41
:10201000D11CB12CF80E0A81372F3071A32E74FF1A
:1020200003C0013309F4FA941F142CF42F2D293026
:1020300018F028E001C021E0682F392F97FF02C077
:1020400060E030E0462F532F612C712C3EE2932E3E
:10205000BC01621B71099B01DC01A41BB50BE1E013
:10206000F0E0EC0FFD1FAE0FBF1FE12EF12CF1943D
:10207000E194F1084F3FFFEF5F0731F4F6019082E2
:10208000B6016F5F7F4F6B01841795074CF02417E3
:10209000350734F4BD01660D771DFB01118101C0C8
:1020A00010E341505109FFEF6F1A7F0AB6016F5FCD
:1020B0007F4F4E155F0524F0F60110836B01DACFD8
:1020C0004817590739F4063320F4053319F4A110E1
:1020D00001C011E3F6011083FB018B2D90E28823F0
:1020E00019F091938150FBCFFB01EB0DF11D108294
:1020F00080E090E029960FB6F894DEBF0FBECDBF0A
:10210000DF91CF911F910F91FF90EF90DF90CF90D3
:10211000BF90AF909F907F906F900895283008F007
:1021200027E03327DA01990F311D87FD9160009672
:102130006105710539F432602E5F3D9330E32A95D5
:10214000E1F708959F3F30F080387105610509F08F
:102150003C5F3C5F3D93913008F08068911DDF93B8
:10216000CF931F930F93FF92EF92192F987F96951D
:10217000E92F96959695E90FFF27E45EFE4F992784
:102180003327EE24FF24A701E70105900894079464
:1021900028F4360FE71EF81E491F511D660F771FE2
:1021A000881F991F0694A1F70590079428F4E70E5D
:1021B000F81E491F561FC11D770F881F991F661FE4
:1021C0000694A1F70590079428F4F80E491F561FAE
:1021D000C71FD11D880F991F661F771F0694A1F78F
:1021E0000590079420F4490F561FC71FD81F990F59
:1021F000661F771F881F0694A9F7849110951770A2
:1022000041F0D695C79557954795F794E7941A9559
:10221000C1F7E2ECF0E06894159015913591659165
:10222000959105907FE27395E118F10A430B560BE7
:10223000C90BD009C0F7E10CF11E431F561FC91F7F
:10224000D01D7EF4703311F48A95E6CFE8940150E6
:1022500030F0080F0AF40027021708F4202F239506
:10226000022F7A3328F079E37D932A95E9F710C09D
:102270007D932A9589F606949795679537951795D6
:102280001794E118F10A430B560BC90BD00998F0CB
:1022900023957E9173957A3308F070E37C93201335
:1022A000B8F77E9170617D9330F0839571E37D93F3
:1022B00070E32A95E1F71124EF90FF900F911F91A1
:1022C000CF91DF91992787FD90950895DC01FC015E
:1022D000672F71917723E1F7329704C07C916D935A
:1022E00070836291AE17BF07C8F308952F923F9293
:1022F0004F925F926F927F928F929F92AF92BF9216
:10230000CF92DF92EF92FF920F931F93CF93DF93C1
:10231000CDB7DEB7CA1BDB0B0FB6F894DEBF0FBE1E
:10232000CDBF09942A88398848885F846E847D846B
:102330008C849B84AA84B984C884DF80EE80FD806D
:102340000C811B81AA81B981CE0FD11D0FB6F894E3
:0E235000DEBF0FBECDBFED010895F894FFCFA4
:10235E000000350280000100000013000A00090091
:10236E00012C0044697374616E6365203A2000434A
:10237E004D0054656D7020202020203A200043002F
:10238E0048756D6964697479203A200025004C55B2
:10239E00582020202020203A2000206C78000000B9
:1023AE000000A9047A09000000000E087A099007BF
:0623BE00A9079B07EC07D4
:107E0000112484B714BE81FFF0D085E080938100F7
:107E100082E08093C00088E18093C10086E0809377
:107E2000C20080E18093C4008EE0C9D0259A86E02C
:107E300020E33CEF91E0309385002093840096BBD3
:107E4000B09BFECF1D9AA8958150A9F7CC24DD24C4
:107E500088248394B5E0AB2EA1E19A2EF3E0BF2EE7
:107E6000A2D0813461F49FD0082FAFD0023811F036
:107E7000013811F484E001C083E08DD089C08234E0
:107E800011F484E103C0853419F485E0A6D080C0E4
:107E9000853579F488D0E82EFF2485D0082F10E0AE
:107EA000102F00270E291F29000F111F8ED06801E7
:107EB0006FC0863521F484E090D080E0DECF843638
:107EC00009F040C070D06FD0082F6DD080E0C81688
:107ED00080E7D80618F4F601B7BEE895C0E0D1E017
:107EE00062D089930C17E1F7F0E0CF16F0E7DF06D8
:107EF00018F0F601B7BEE89568D007B600FCFDCFD4
:107F0000A601A0E0B1E02C9130E011968C91119780
:107F100090E0982F8827822B932B1296FA010C0160
:107F200087BEE89511244E5F5F4FF1E0A038BF0790
:107F300051F7F601A7BEE89507B600FCFDCF97BE46
:107F4000E89526C08437B1F42ED02DD0F82E2BD052
:107F50003CD0F601EF2C8F010F5F1F4F84911BD097
:107F6000EA94F801C1F70894C11CD11CFA94CF0C13
:107F7000D11C0EC0853739F428D08EE10CD085E9AC
:107F80000AD08FE07ACF813511F488E018D01DD067
:107F900080E101D065CF982F8091C00085FFFCCF94
:107FA0009093C60008958091C00087FFFCCF809118
:107FB000C00084FD01C0A8958091C6000895E0E648
:107FC000F0E098E1908380830895EDDF803219F02E
:107FD00088E0F5DFFFCF84E1DECF1F93182FE3DFCA
:107FE0001150E9F7F2DF1F91089580E0E8DFEE27F6
:047FF000FF270994CA
:027FFE00040479
:0400000300007E007B
:00000001FF
